{
  "contractName": "ContractRegistry",
  "abi": [
    {
      "constant": false,
      "inputs": [],
      "name": "acceptOwnership",
      "outputs": [],
      "payable": false,
      "stateMutability": "nonpayable",
      "type": "function"
    },
    {
      "constant": true,
      "inputs": [],
      "name": "owner",
      "outputs": [
        {
          "name": "",
          "type": "address"
        }
      ],
      "payable": false,
      "stateMutability": "view",
      "type": "function"
    },
    {
      "constant": true,
      "inputs": [],
      "name": "newOwner",
      "outputs": [
        {
          "name": "",
          "type": "address"
        }
      ],
      "payable": false,
      "stateMutability": "view",
      "type": "function"
    },
    {
      "constant": false,
      "inputs": [
        {
          "name": "_newOwner",
          "type": "address"
        }
      ],
      "name": "transferOwnership",
      "outputs": [],
      "payable": false,
      "stateMutability": "nonpayable",
      "type": "function"
    },
    {
      "inputs": [],
      "payable": false,
      "stateMutability": "nonpayable",
      "type": "constructor"
    },
    {
      "anonymous": false,
      "inputs": [
        {
          "indexed": true,
          "name": "_contractName",
          "type": "bytes32"
        },
        {
          "indexed": false,
          "name": "_contractAddress",
          "type": "address"
        }
      ],
      "name": "AddressUpdate",
      "type": "event"
    },
    {
      "anonymous": false,
      "inputs": [
        {
          "indexed": true,
          "name": "_prevOwner",
          "type": "address"
        },
        {
          "indexed": true,
          "name": "_newOwner",
          "type": "address"
        }
      ],
      "name": "OwnerUpdate",
      "type": "event"
    },
    {
      "constant": true,
      "inputs": [
        {
          "name": "_contractName",
          "type": "bytes32"
        }
      ],
      "name": "getAddress",
      "outputs": [
        {
          "name": "",
          "type": "address"
        }
      ],
      "payable": false,
      "stateMutability": "view",
      "type": "function"
    },
    {
      "constant": false,
      "inputs": [
        {
          "name": "_contractName",
          "type": "bytes32"
        },
        {
          "name": "_contractAddress",
          "type": "address"
        }
      ],
      "name": "registerAddress",
      "outputs": [],
      "payable": false,
      "stateMutability": "nonpayable",
      "type": "function"
    }
  ],
  "bytecode": "0x608060405234801561001057600080fd5b5060008054600160a060020a03191633179055610306806100326000396000f3006080604052600436106100775763ffffffff7c010000000000000000000000000000000000000000000000000000000060003504166321f8a721811461007c578063662de379146100b057806379ba5097146100d65780638da5cb5b146100eb578063d4ee1d9014610100578063f2fde38b14610115575b600080fd5b34801561008857600080fd5b50610094600435610136565b60408051600160a060020a039092168252519081900360200190f35b3480156100bc57600080fd5b506100d4600435600160a060020a0360243516610151565b005b3480156100e257600080fd5b506100d46101d6565b3480156100f757600080fd5b5061009461025e565b34801561010c57600080fd5b5061009461026d565b34801561012157600080fd5b506100d4600160a060020a036004351661027c565b600090815260026020526040902054600160a060020a031690565b600054600160a060020a0316331461016557fe5b600082815260026020908152604091829020805473ffffffffffffffffffffffffffffffffffffffff1916600160a060020a0385169081179091558251908152915184927ffc08d1253c81bcd5444fc7056ef1f5a5df4c9220b6fd70d7449267f1f0f2991892908290030190a25050565b600154600160a060020a031633146101ed57600080fd5b60015460008054604051600160a060020a0393841693909116917f343765429aea5a34b3ff6a3785a98a5abb2597aca87bfbb58632c173d585373a91a3600180546000805473ffffffffffffffffffffffffffffffffffffffff19908116600160a060020a03841617909155169055565b600054600160a060020a031681565b600154600160a060020a031681565b600054600160a060020a0316331461029057fe5b600054600160a060020a03828116911614156102ab57600080fd5b6001805473ffffffffffffffffffffffffffffffffffffffff1916600160a060020a03929092169190911790555600a165627a7a723058200948618838b566412e4841879ae9a1ada45332dd4eb1db6fea1c63d2d1c640900029",
  "source": "pragma solidity ^0.4.21;\nimport './Owned.sol';\nimport './interfaces/IContractRegistry.sol';\n\n/**\n    Contract Registry\n\n    The contract registry keeps contract addresses by name.\n    The owner can update contract addresses so that a contract name always points to the latest version\n    of the given contract.\n    Other contracts can query the registry to get updated addresses instead of depending on specific\n    addresses.\n\n    Note that contract names are limited to 32 bytes, UTF8 strings to optimize gas costs\n*/\ncontract ContractRegistry is IContractRegistry, Owned {\n    mapping (bytes32 => address) addresses;\n\n    event AddressUpdate(bytes32 indexed _contractName, address _contractAddress);\n\n    /**\n        @dev constructor\n    */\n    function ContractRegistry() public {\n    }\n\n    /**\n        @dev returns the address associated with the given contract name\n\n        @param _contractName    contract name\n\n        @return contract address\n    */\n    function getAddress(bytes32 _contractName) public view returns (address) {\n        return addresses[_contractName];\n    }\n\n    /**\n        @dev registers a new address for the contract name\n\n       @param _contractName     contract name\n       @param _contractAddress  contract address\n    */\n    function registerAddress(bytes32 _contractName, address _contractAddress) public ownerOnly {\n        require(_contractName.length > 0); // validating input\n\n        addresses[_contractName] = _contractAddress;\n        emit AddressUpdate(_contractName, _contractAddress);\n    }\n}\n",
  "sourcePath": "/home/shudal/Projects/BlockChain/NickTalk/contracts/utility/ContractRegistry.sol",
  "compiler": {
    "name": "solc",
    "version": "0.4.24+commit.e67f0147.Emscripten.clang"
  },
  "schemaVersion": "3.0.8",
  "updatedAt": "2019-05-06T02:37:43.876Z",
  "devdoc": {
    "methods": {
      "acceptOwnership()": {
        "details": "used by a new owner to accept an ownership transfer"
      },
      "getAddress(bytes32)": {
        "details": "returns the address associated with the given contract name",
        "params": {
          "_contractName": "contract name"
        },
        "return": "contract address"
      },
      "registerAddress(bytes32,address)": {
        "details": "registers a new address for the contract name",
        "params": {
          "_contractAddress": "contract address",
          "_contractName": "contract name"
        }
      },
      "transferOwnership(address)": {
        "details": "allows transferring the contract ownership the new owner still needs to accept the transfer can only be called by the contract owner",
        "params": {
          "_newOwner": "new contract owner"
        }
      }
    }
  },
  "userdoc": {
    "methods": {}
  }
}