{
  "contractName": "Entry",
  "abi": [
    {
      "constant": true,
      "inputs": [
        {
          "name": "_token",
          "type": "address"
        },
        {
          "name": "_to",
          "type": "address"
        },
        {
          "name": "_amount",
          "type": "uint256"
        }
      ],
      "name": "clientVersion",
      "outputs": [
        {
          "name": "",
          "type": "uint8"
        }
      ],
      "payable": false,
      "stateMutability": "view",
      "type": "function"
    },
    {
      "constant": true,
      "inputs": [
        {
          "name": "_token",
          "type": "address"
        },
        {
          "name": "_to",
          "type": "address"
        },
        {
          "name": "_amount",
          "type": "uint256"
        }
      ],
      "name": "maxPersonalMessageBoxLength",
      "outputs": [
        {
          "name": "",
          "type": "uint16"
        }
      ],
      "payable": false,
      "stateMutability": "view",
      "type": "function"
    },
    {
      "constant": true,
      "inputs": [
        {
          "name": "_token",
          "type": "address"
        },
        {
          "name": "_to",
          "type": "address"
        },
        {
          "name": "_amount",
          "type": "uint256"
        }
      ],
      "name": "updateMsg",
      "outputs": [
        {
          "name": "",
          "type": "string"
        }
      ],
      "payable": false,
      "stateMutability": "view",
      "type": "function"
    },
    {
      "constant": false,
      "inputs": [
        {
          "name": "_token",
          "type": "address"
        },
        {
          "name": "_to",
          "type": "address"
        },
        {
          "name": "_amount",
          "type": "uint256"
        }
      ],
      "name": "withdrawTokens",
      "outputs": [
        {
          "name": "",
          "type": "address"
        }
      ],
      "payable": false,
      "stateMutability": "nonpayable",
      "type": "function"
    },
    {
      "constant": false,
      "inputs": [
        {
          "name": "_newOwner",
          "type": "address"
        }
      ],
      "name": "acceptOwnership",
      "outputs": [
        {
          "name": "",
          "type": "address"
        }
      ],
      "payable": false,
      "stateMutability": "nonpayable",
      "type": "function"
    },
    {
      "anonymous": false,
      "inputs": [
        {
          "indexed": true,
          "name": "_newOwner",
          "type": "address"
        },
        {
          "indexed": true,
          "name": "_newOwner",
          "type": "address"
        }
      ],
      "name": "owner",
      "type": "function",
      "constant": true,
      "outputs": [
        {
          "name": "",
          "type": "address"
        }
      ],
      "payable": false,
      "stateMutability": "view"
    },
    {
      "constant": true,
      "inputs": [
        {
          "name": "_newOwner",
          "type": "address",
          "indexed": true
        },
        {
          "indexed": true,
          "name": "_newOwner",
          "type": "address"
        }
      ],
      "name": "newOwner",
      "outputs": [
        {
          "name": "",
          "type": "address"
        }
      ],
      "payable": false,
      "stateMutability": "view",
      "type": "function",
      "anonymous": false
    },
    {
      "constant": false,
      "inputs": [
        {
          "name": "_newOwner",
          "type": "address",
          "indexed": false
        },
        {
          "indexed": false,
          "name": "_from",
          "type": "address"
        },
        {
          "components": [
            {
              "name": "from",
              "type": "address"
            },
            {
              "name": "msg",
              "type": "string"
            },
            {
              "name": "timestamp",
              "type": "uint256"
            }
          ],
          "indexed": false,
          "name": "message",
          "type": "tuple"
        }
      ],
      "name": "transferOwnership",
      "outputs": [
        {
          "name": "",
          "type": "uint8"
        }
      ],
      "payable": false,
      "stateMutability": "nonpayable",
      "type": "function",
      "anonymous": false
    },
    {
      "constant": false,
      "inputs": [
        {
          "name": "_to",
          "type": "address",
          "indexed": true
        },
        {
          "indexed": true,
          "name": "_from",
          "type": "address"
        },
        {
          "components": [
            {
              "name": "from",
              "type": "address"
            },
            {
              "name": "content",
              "type": "string"
            },
            {
              "name": "timestamp",
              "type": "uint256"
            }
          ],
          "indexed": true,
          "name": "message",
          "type": "tuple"
        }
      ],
      "name": "newMessage",
      "outputs": [
        {
          "name": "",
          "type": "uint8"
        }
      ],
      "payable": false,
      "stateMutability": "nonpayable",
      "type": "event",
      "anonymous": false
    },
    {
      "constant": false,
      "inputs": [
        {
          "name": "_prevOwner",
          "type": "address",
          "indexed": true
        },
        {
          "indexed": true,
          "name": "_newOwner",
          "type": "address"
        }
      ],
      "name": "OwnerUpdate",
      "outputs": [],
      "payable": false,
      "stateMutability": "nonpayable",
      "type": "event",
      "anonymous": false
    },
    {
      "constant": false,
      "inputs": [
        {
          "name": "_clientVersion",
          "type": "uint8"
        },
        {
          "name": "msg",
          "type": "string"
        }
      ],
      "name": "setVersion",
      "outputs": [],
      "payable": false,
      "stateMutability": "nonpayable",
      "type": "function"
    },
    {
      "constant": false,
      "inputs": [
        {
          "name": "_updateMsg",
          "type": "string"
        },
        {
          "name": "_msg",
          "type": "string"
        },
        {
          "name": "_clientVersion",
          "type": "uint8"
        }
      ],
      "name": "setUpdateMsg",
      "outputs": [],
      "payable": false,
      "stateMutability": "nonpayable",
      "type": "function"
    },
    {
      "constant": false,
      "inputs": [
        {
          "name": "_length",
          "type": "uint16"
        }
      ],
      "name": "setMaxPersonalMessageBoxLength",
      "outputs": [],
      "payable": false,
      "stateMutability": "nonpayable",
      "type": "function"
    },
    {
      "constant": false,
      "inputs": [
        {
          "name": "_toAddress",
          "type": "address"
        },
        {
          "name": "_content",
          "type": "string"
        },
        {
          "name": "_clientVersion",
          "type": "uint8"
        }
      ],
      "name": "sendMsg",
      "outputs": [],
      "payable": false,
      "stateMutability": "nonpayable",
      "type": "function"
    }
  ],
  "bytecode": "0x6001805460a060020a60ff0219167401000000000000000000000000000000000000000017905560c0604052601760808190527f4e656564207570646174652074686520636c69656e742e00000000000000000060a0908152610065916002919061008c565b506003805461ffff19166101f417905560008054600160a060020a03191633179055610127565b828054600181600116156101000203166002900490600052602060002090601f016020900481019282601f106100cd57805160ff19168380011785556100fa565b828001600101855582156100fa579182015b828111156100fa5782518255916020019190600101906100df565b5061010692915061010a565b5090565b61012491905b808211156101065760008155600101610110565b90565b610c78806101366000396000f3006080604052600436106100b95763ffffffff7c0100000000000000000000000000000000000000000000000000000000600035041663044c1d4d81146100be5780631124fb84146100e957806331b586801461010757806332a48f0c146101335780633f055b52146101bd5780635e35359e1461022957806379ba5097146102535780638da5cb5b14610268578063d4ee1d9014610299578063eb544aaf146102ae578063f2fde38b14610307578063f78203a714610328575b600080fd5b3480156100ca57600080fd5b506100d3610343565b6040805160ff9092168252519081900360200190f35b3480156100f557600080fd5b5061010561ffff60043516610364565b005b34801561011357600080fd5b5061011c610390565b6040805161ffff9092168252519081900360200190f35b34801561013f57600080fd5b5061014861039a565b6040805160208082528351818301528351919283929083019185019080838360005b8381101561018257818101518382015260200161016a565b50505050905090810190601f1680156101af5780820380516001836020036101000a031916815260200191505b509250505060405180910390f35b3480156101c957600080fd5b5060408051602060046024803582810135601f8101859004850286018501909652858552610105958335600160a060020a03169536956044949193909101919081908401838280828437509497505050923560ff16935061042592505050565b34801561023557600080fd5b50610105600160a060020a036004358116906024351660443561073f565b34801561025f57600080fd5b50610105610846565b34801561027457600080fd5b5061027d6108ce565b60408051600160a060020a039092168252519081900360200190f35b3480156102a557600080fd5b5061027d6108dd565b3480156102ba57600080fd5b506040805160206004803580820135601f81018490048402850184019095528484526101059436949293602493928401919081908401838280828437509497506108ec9650505050505050565b34801561031357600080fd5b50610105600160a060020a0360043516610917565b34801561033457600080fd5b5061010560ff60043516610975565b60015474010000000000000000000000000000000000000000900460ff1681565b600054600160a060020a0316331461037857fe5b6003805461ffff191661ffff92909216919091179055565b60035461ffff1681565b6002805460408051602060018416156101000260001901909316849004601f8101849004840282018401909252818152929183018282801561041d5780601f106103f25761010080835404028352916020019161041d565b820191906000526020600020905b81548152906001019060200180831161040057829003601f168201915b505050505081565b6001546000908190839060029060ff740100000000000000000000000000000000000000009091048116908316101561050b576040517f08c379a00000000000000000000000000000000000000000000000000000000081526020600482019081528254600260001961010060018416150201909116046024830181905290918291604490910190849080156104fc5780601f106104d1576101008083540402835291602001916104fc565b820191906000526020600020905b8154815290600101906020018083116104df57829003601f168201915b50509250505060405180910390fd5b50600160a060020a03868116600090815260056020908152604080832081516060810183523381528084018b8152429382019390935281546001808201808555938752958590208251600390920201805473ffffffffffffffffffffffffffffffffffffffff19169190971617865591518051919592949293610593938501929101906109cb565b506040918201516002909101558051606081018252338082526020820189905242828401529151909250600160a060020a038916907fd46cb43293816d47f53b36c8c8faf9f426a637c8e3b600247608c12c826a1c3c90600090a4600354600160a060020a038716600090815260056020526040902054600261ffff928316029091161161073757600091505b60035461ffff908116908316116106ec57600160a060020a0386166000908152600560205260409020805484919061ffff851690811061065c57fe5b600091825260208083208454600181810180885596865292909420600393840290910180549490930201805473ffffffffffffffffffffffffffffffffffffffff1916600160a060020a0390941693909317835580820180549293926106d692848101929160029181161561010002600019011604610a49565b5060029182015491015550600190910190610620565b600160a060020a038616600090815260056020526040812061070e9082610abe565b50600160a060020a0386166000908152600560205260409020835461073591908590610aef565b505b505050505050565b600054600160a060020a0316331461075357fe5b82600160a060020a038116151561076957600080fd5b82600160a060020a038116151561077f57600080fd5b83600160a060020a03811630141561079657600080fd5b85600160a060020a031663a9059cbb86866040518363ffffffff167c01000000000000000000000000000000000000000000000000000000000281526004018083600160a060020a0316600160a060020a0316815260200182815260200192505050602060405180830381600087803b15801561081257600080fd5b505af1158015610826573d6000803e3d6000fd5b505050506040513d602081101561083c57600080fd5b5051151561073757fe5b600154600160a060020a0316331461085d57600080fd5b60015460008054604051600160a060020a0393841693909116917f343765429aea5a34b3ff6a3785a98a5abb2597aca87bfbb58632c173d585373a91a3600180546000805473ffffffffffffffffffffffffffffffffffffffff19908116600160a060020a03841617909155169055565b600054600160a060020a031681565b600154600160a060020a031681565b600054600160a060020a0316331461090057fe5b80516109139060029060208401906109cb565b5050565b600054600160a060020a0316331461092b57fe5b600054600160a060020a038281169116141561094657600080fd5b6001805473ffffffffffffffffffffffffffffffffffffffff1916600160a060020a0392909216919091179055565b600054600160a060020a0316331461098957fe5b6001805460ff909216740100000000000000000000000000000000000000000274ff000000000000000000000000000000000000000019909216919091179055565b828054600181600116156101000203166002900490600052602060002090601f016020900481019282601f10610a0c57805160ff1916838001178555610a39565b82800160010185558215610a39579182015b82811115610a39578251825591602001919060010190610a1e565b50610a45929150610ba0565b5090565b828054600181600116156101000203166002900490600052602060002090601f016020900481019282601f10610a825780548555610a39565b82800160010185558215610a3957600052602060002091601f016020900482015b82811115610a39578254825591600101919060010190610aa3565b815481835581811115610aea57600302816003028360005260206000209182019101610aea9190610bbd565b505050565b828054828255906000526020600020906003028101928215610b945760005260206000209160030282015b82811115610b94578254825473ffffffffffffffffffffffffffffffffffffffff1916600160a060020a039091161782556001808401805485928592610b789282850192600260001991831615610100029190910190911604610a49565b5060028201548160020155505091600301919060030190610b1a565b50610a45929150610bbd565b610bba91905b80821115610a455760008155600101610ba6565b90565b610bba91905b80821115610a4557805473ffffffffffffffffffffffffffffffffffffffff191681556000610bf56001830182610c05565b5060006002820155600301610bc3565b50805460018160011615610100020316600290046000825580601f10610c2b5750610c49565b601f016020900490600052602060002090810190610c499190610ba0565b505600a165627a7a72305820bb549969e306c6a6c446fb8adff0c427c07bbfd15504a991811a7295930b99f30029",
  "source": "pragma solidity ^0.4.24;\n\nimport './utility/Owned.sol';\nimport './utility/TokenHolder.sol';\nimport './server/MainServer.sol';\n\ncontract Entry is Owned, TokenHolder {\n    uint8 public clientVersion = 1;\n    string public updateMsg = \"Need update the client.\";\n\n    uint16 public maxPersonalMessageBoxLength = 500;\n\n    struct Message {\n        address from;\n        string  content;\n        uint    timestamp;\n    }\n\n    event newMessage(address indexed _to, address indexed _from, Message indexed message);\n\n    mapping(address => uint16) messageBoxPointer;\n    mapping(address => Message[]) messageBox;\n\n    modifier versionSuits(uint8 _clientVersion) {\n        require(_clientVersion >= clientVersion, updateMsg);\n        _;\n    }\n\n    function setVersion(uint8 _clientVersion) public ownerOnly {\n        clientVersion = _clientVersion;\n    }\n\n    function setUpdateMsg(string _updateMsg) public ownerOnly {\n        updateMsg = _updateMsg;\n    }\n\n    function setMaxPersonalMessageBoxLength(uint16 _length) ownerOnly {\n        maxPersonalMessageBoxLength = _length;\n    }\n\n    function sendMsg(address _toAddress, string _content, uint8 _clientVersion) public versionSuits(_clientVersion) {\n        messageBox[_toAddress].push(Message(msg.sender, _content, now));\n\n        emit newMessage(_toAddress, msg.sender, Message(msg.sender, _content, now));\n\n        if (messageBox[_toAddress].length >= (maxPersonalMessageBoxLength * 2)) {\n            Message[] newMessageBox;\n            for (uint16 i=0; i<= maxPersonalMessageBoxLength; i++) {\n                newMessageBox.push(messageBox[_toAddress][i]);\n            }\n\n            messageBox[_toAddress].length = 0;\n            messageBox[_toAddress] = newMessageBox;\n        }\n    }\n\n}",
  "sourcePath": "/home/shudal/Projects/BlockChain/NickTalk/contracts/Entry.sol",
  "compiler": {
    "name": "solc",
    "version": "0.4.24+commit.e67f0147.Emscripten.clang"
  },
  "schemaVersion": "3.0.8",
  "updatedAt": "2019-05-06T04:21:55.134Z",
  "devdoc": {
    "methods": {
      "acceptOwnership()": {
        "details": "used by a new owner to accept an ownership transfer"
      },
      "transferOwnership(address)": {
        "details": "allows transferring the contract ownership the new owner still needs to accept the transfer can only be called by the contract owner",
        "params": {
          "_newOwner": "new contract owner"
        }
      },
      "withdrawTokens(address,address,uint256)": {
        "details": "withdraws tokens held by the contract and sends them to an account can only be called by the owner",
        "params": {
          "_amount": "amount to withdraw",
          "_to": "account to receive the new amount",
          "_token": "ERC20 token contract address"
        }
      }
    }
  },
  "userdoc": {
    "methods": {}
  }
}