{
  "contractName": "Whitelist",
  "abi": [
    {
      "constant": false,
      "inputs": [],
      "name": "acceptOwnership",
      "outputs": [],
      "payable": false,
      "stateMutability": "nonpayable",
      "type": "function"
    },
    {
      "constant": true,
      "inputs": [],
      "name": "owner",
      "outputs": [
        {
          "name": "",
          "type": "address"
        }
      ],
      "payable": false,
      "stateMutability": "view",
      "type": "function"
    },
    {
      "constant": true,
      "inputs": [],
      "name": "newOwner",
      "outputs": [
        {
          "name": "",
          "type": "address"
        }
      ],
      "payable": false,
      "stateMutability": "view",
      "type": "function"
    },
    {
      "constant": false,
      "inputs": [
        {
          "name": "_newOwner",
          "type": "address"
        }
      ],
      "name": "transferOwnership",
      "outputs": [],
      "payable": false,
      "stateMutability": "nonpayable",
      "type": "function"
    },
    {
      "inputs": [],
      "payable": false,
      "stateMutability": "nonpayable",
      "type": "constructor"
    },
    {
      "anonymous": false,
      "inputs": [
        {
          "indexed": false,
          "name": "_address",
          "type": "address"
        }
      ],
      "name": "AddressAddition",
      "type": "event"
    },
    {
      "anonymous": false,
      "inputs": [
        {
          "indexed": false,
          "name": "_address",
          "type": "address"
        }
      ],
      "name": "AddressRemoval",
      "type": "event"
    },
    {
      "anonymous": false,
      "inputs": [
        {
          "indexed": true,
          "name": "_prevOwner",
          "type": "address"
        },
        {
          "indexed": true,
          "name": "_newOwner",
          "type": "address"
        }
      ],
      "name": "OwnerUpdate",
      "type": "event"
    },
    {
      "constant": true,
      "inputs": [
        {
          "name": "_address",
          "type": "address"
        }
      ],
      "name": "isWhitelisted",
      "outputs": [
        {
          "name": "",
          "type": "bool"
        }
      ],
      "payable": false,
      "stateMutability": "view",
      "type": "function"
    },
    {
      "constant": false,
      "inputs": [
        {
          "name": "_address",
          "type": "address"
        }
      ],
      "name": "addAddress",
      "outputs": [],
      "payable": false,
      "stateMutability": "nonpayable",
      "type": "function"
    },
    {
      "constant": false,
      "inputs": [
        {
          "name": "_addresses",
          "type": "address[]"
        }
      ],
      "name": "addAddresses",
      "outputs": [],
      "payable": false,
      "stateMutability": "nonpayable",
      "type": "function"
    },
    {
      "constant": false,
      "inputs": [
        {
          "name": "_address",
          "type": "address"
        }
      ],
      "name": "removeAddress",
      "outputs": [],
      "payable": false,
      "stateMutability": "nonpayable",
      "type": "function"
    },
    {
      "constant": false,
      "inputs": [
        {
          "name": "_addresses",
          "type": "address[]"
        }
      ],
      "name": "removeAddresses",
      "outputs": [],
      "payable": false,
      "stateMutability": "nonpayable",
      "type": "function"
    }
  ],
  "bytecode": "0x608060405234801561001057600080fd5b5060008054600160a060020a03191633179055610536806100326000396000f3006080604052600436106100985763ffffffff7c01000000000000000000000000000000000000000000000000000000006000350416633628731c811461009d57806338eada1c146100f45780633af32abf146101155780634ba79dfe1461014a57806379ba50971461016b5780638da5cb5b14610180578063a84eb999146101b1578063d4ee1d9014610206578063f2fde38b1461021b575b600080fd5b3480156100a957600080fd5b50604080516020600480358082013583810280860185019096528085526100f29536959394602494938501929182918501908490808284375094975061023c9650505050505050565b005b34801561010057600080fd5b506100f2600160a060020a0360043516610274565b34801561012157600080fd5b50610136600160a060020a0360043516610320565b604080519115158252519081900360200190f35b34801561015657600080fd5b506100f2600160a060020a036004351661033e565b34801561017757600080fd5b506100f26103d2565b34801561018c57600080fd5b5061019561045a565b60408051600160a060020a039092168252519081900360200190f35b3480156101bd57600080fd5b50604080516020600480358082013583810280860185019096528085526100f2953695939460249493850192918291850190849080828437509497506104699650505050505050565b34801561021257600080fd5b5061019561049d565b34801561022757600080fd5b506100f2600160a060020a03600435166104ac565b60005b815181101561027057610268828281518110151561025957fe5b90602001906020020151610274565b60010161023f565b5050565b600054600160a060020a0316331461028857fe5b80600160a060020a038116151561029e57600080fd5b600160a060020a03821660009081526002602052604090205460ff16156102c457610270565b600160a060020a038216600081815260026020908152604091829020805460ff19166001179055815192835290517f2c51f80053e9ee7518567e43b2f8e8b48f50cf10daede6d11893df9ad49e4a8a9281900390910190a15050565b600160a060020a031660009081526002602052604090205460ff1690565b600054600160a060020a0316331461035257fe5b600160a060020a03811660009081526002602052604090205460ff161515610379576103cf565b600160a060020a038116600081815260026020908152604091829020805460ff19169055815192835290517f7ec2df28665f8610f9b1d2f74faae35dbc6bd58684a1194a6dfc31584953f03b9281900390910190a15b50565b600154600160a060020a031633146103e957600080fd5b60015460008054604051600160a060020a0393841693909116917f343765429aea5a34b3ff6a3785a98a5abb2597aca87bfbb58632c173d585373a91a3600180546000805473ffffffffffffffffffffffffffffffffffffffff19908116600160a060020a03841617909155169055565b600054600160a060020a031681565b60005b815181101561027057610495828281518110151561048657fe5b9060200190602002015161033e565b60010161046c565b600154600160a060020a031681565b600054600160a060020a031633146104c057fe5b600054600160a060020a03828116911614156104db57600080fd5b6001805473ffffffffffffffffffffffffffffffffffffffff1916600160a060020a03929092169190911790555600a165627a7a72305820e195ae9ed690c6406238fd23a5508aa7073e08ab16920451c70cc0744a52a9100029",
  "source": "pragma solidity ^0.4.21;\nimport './Owned.sol';\nimport './Utils.sol';\nimport './interfaces/IWhitelist.sol';\n\n/**\n    Whitelist\n\n    The contract manages a list of whitelisted addresses\n*/\ncontract Whitelist is IWhitelist, Owned, Utils {\n    mapping (address => bool) private whitelist;\n\n    event AddressAddition(address _address);\n    event AddressRemoval(address _address);\n\n    /**\n        @dev constructor\n    */\n    function Whitelist() public {\n    }\n\n    // allows execution by a whitelisted address only\n    modifier whitelistedOnly() {\n        require(whitelist[msg.sender]);\n        _;\n    }\n\n    /**\n        @dev returns true if a given address is whitelisted, false if not\n\n        @param _address address to check\n\n        @return true if the address is whitelisted, false if not\n    */\n    function isWhitelisted(address _address) public view returns (bool) {\n        return whitelist[_address];\n    }\n\n    /**\n        @dev adds a given address to the whitelist\n\n        @param _address address to add\n    */\n    function addAddress(address _address)\n        ownerOnly\n        validAddress(_address)\n        public \n    {\n        if (whitelist[_address]) // checks if the address is already whitelisted\n            return;\n\n        whitelist[_address] = true;\n        emit AddressAddition(_address);\n    }\n\n    /**\n        @dev adds a list of addresses to the whitelist\n\n        @param _addresses addresses to add\n    */\n    function addAddresses(address[] _addresses) public {\n        for (uint256 i = 0; i < _addresses.length; i++) {\n            addAddress(_addresses[i]);\n        }\n    }\n\n    /**\n        @dev removes a given address from the whitelist\n\n        @param _address address to remove\n    */\n    function removeAddress(address _address) ownerOnly public {\n        if (!whitelist[_address]) // checks if the address is actually whitelisted\n            return;\n\n        whitelist[_address] = false;\n        emit AddressRemoval(_address);\n    }\n\n    /**\n        @dev removes a list of addresses from the whitelist\n\n        @param _addresses addresses to remove\n    */\n    function removeAddresses(address[] _addresses) public {\n        for (uint256 i = 0; i < _addresses.length; i++) {\n            removeAddress(_addresses[i]);\n        }\n    }\n}\n",
  "sourcePath": "/home/shudal/Projects/BlockChain/NickTalk/contracts/utility/Whitelist.sol",
  "compiler": {
    "name": "solc",
    "version": "0.4.24+commit.e67f0147.Emscripten.clang"
  },
  "schemaVersion": "3.0.8",
  "updatedAt": "2019-05-06T02:37:43.880Z",
  "devdoc": {
    "methods": {
      "acceptOwnership()": {
        "details": "used by a new owner to accept an ownership transfer"
      },
      "addAddress(address)": {
        "details": "adds a given address to the whitelist",
        "params": {
          "_address": "address to add"
        }
      },
      "addAddresses(address[])": {
        "details": "adds a list of addresses to the whitelist",
        "params": {
          "_addresses": "addresses to add"
        }
      },
      "isWhitelisted(address)": {
        "details": "returns true if a given address is whitelisted, false if not",
        "params": {
          "_address": "address to check"
        },
        "return": "true if the address is whitelisted, false if not"
      },
      "removeAddress(address)": {
        "details": "removes a given address from the whitelist",
        "params": {
          "_address": "address to remove"
        }
      },
      "removeAddresses(address[])": {
        "details": "removes a list of addresses from the whitelist",
        "params": {
          "_addresses": "addresses to remove"
        }
      },
      "transferOwnership(address)": {
        "details": "allows transferring the contract ownership the new owner still needs to accept the transfer can only be called by the contract owner",
        "params": {
          "_newOwner": "new contract owner"
        }
      }
    }
  },
  "userdoc": {
    "methods": {}
  }
}